:100000000C9462000C948A000C948A000C9499065B
:100010000C9474060C944F060C948A000C948A007D
:100020000C948A000C948A000C948A000C948A0028
:100030000C948A000C948A000C948A000C948A0018
:100040000C94220A0C948A000C941C050C94F6045F
:100050000C948A000C948A000C948A000C948A00F8
:100060000C948A000C948A000000000024002700F1
:100070002A0000000008000201000003040700003D
:1000800000000000000000000000250028002B00F8
:1000900000000000230026002900040404040404D6
:1000A0000404020202020202030303030303010227
:1000B00004081020408001020408102001020408F6
:1000C0001020E90B11241FBECFEFD8E0DEBFCDBF5B
:1000D00022E0A4E8B1E001C01D92AF39B207E1F718
:1000E00011E0A0E0B1E0E2E5FFE102C005900D9271
:1000F000A438B107D9F710E0C2E6D0E004C02197D8
:10010000FE010E94A50DC136D107C9F70E946C0AF5
:100110000C94A70F0C940000CF92DF92EF92FF9205
:100120000F931F93CF93DF936C017A018B01C0E093
:10013000D0E0CE15DF0581F0D8016D918D01D6019B
:10014000ED91FC910190F081E02DC6010995892B7C
:1001500011F02196EECF7E01C701DF91CF911F9163
:100160000F91FF90EF90DF90CF900895FC01538D99
:10017000448D252F30E0842F90E0821B930B541781
:1001800010F0CF96089501970895FC01918D828D0E
:10019000981761F0828DDF01A80FB11D5D968C91DB
:1001A000928D9F5F9F73928F90E008958FEF9FEFE6
:1001B0000895FC01918D828D981731F0828DE80FA2
:1001C000F11D858D90E008958FEF9FEF0895FC015C
:1001D000918D228D892F90E0805C9F4F821B910929
:1001E0008F739927089587ED91E00E94E70021E041
:1001F000892B09F420E0822F0895FC01848DDF0112
:10020000A80FB11DA35ABF4F2C91848D90E0019689
:100210008F739927848FA689B7892C93A089B18978
:100220008C91837080648C93938D848D981306C019
:100230000288F389E02D80818F7D80830895EF927D
:10024000FF920F931F93CF93DF93EC0181E0888F90
:100250009B8D8C8D981305C0E889F989808185FD77
:1002600026C0F62E0B8D10E00F5F1F4F0F73112766
:10027000E02E8C8DE8120CC00FB607FCFACFE8898F
:10028000F989808185FFF5CFCE010E94FD00F1CF75
:100290008B8DFE01E80FF11DE35AFF4FF0829FB7EF
:1002A000F8940B8FEA89FB89808180620AC09FB72E
:1002B000F894EE89FF896083E889F98980818370E9
:1002C000806480839FBF81E090E0DF91CF911F9198
:1002D0000F91FF90EF900895CF93DF93EC01888DFD
:1002E0008823C9F0EA89FB89808185FD05C0A8893A
:1002F000B9898C9186FD0FC00FB607FCF5CF8081C0
:1003000085FFF2CFA889B9898C9185FFEDCFCE0109
:100310000E94FD00E7CFDF91CF91089580E090E04B
:10032000892B29F00E94F30081110C94000008959C
:100330002091CF018091CE01821769F030E0F90160
:10034000EC57FE4F80812F5F3F4F2F733327209351
:10035000CF0190E008958FEF9FEF08958F929F92C5
:10036000AF92BF92CF92DF92EF92FF920F931F93C3
:10037000CF93DF93CDB7DEB7AC970FB6F894DEBF5F
:100380000FBECDBFDC011696ED91FC91179731960B
:1003900009F46DC069018A017B014C01FE013196AF
:1003A0005F0188E2DF011D928A95E9F7D401ED91A2
:1003B000FC910484F585E02DB501C40109950097F1
:1003C00009F057C01CA61BA61AA619A6D401ED91C8
:1003D000FC910684F785E02D9E01275D3F4FAE011D
:1003E000455D5F4FB501C4010995009709F041C013
:1003F000C114D10439F088E2F501D60101900D92C3
:100400008A95E1F7E114F10481F08CA5682F782F2B
:10041000770F770B072E000C880B990B0E948A0C24
:10042000F70160837183828393830115110589F03D
:100430008AA5682F782F770F770B072E000C880B73
:10044000990B0E948A0CD8016D937D938D939C9398
:1004500013978BA59CA5009739F429A53AA5232BC2
:1004600041F486E190E005C080E090E002C087E1C1
:1004700090E0AC960FB6F894DEBF0FBECDBFDF9113
:10048000CF911F910F91FF90EF90DF90CF90BF9091
:10049000AF909F908F9008958F929F92AF92BF924E
:1004A000CF92DF92EF92FF920F931F93CF93DF9340
:1004B000EC018B015A017901E881F9810284F3850D
:1004C000E02D0995C82EB801685F7F4FE881F9815A
:1004D0000284F385E02DCE010995D82EB801605F26
:1004E0007F4FE881F9810284F385E02DCE010995E3
:1004F000882EB801685E7F4FE881F9810284F38518
:10050000E02DCE010995982EB801605E7F4FE881FD
:10051000F9810284F385E02DCE0109959C2D9D0D76
:10052000980D990D89130FC0892D90E09829F50138
:10053000918380838D2D90E09C29F70191838083A6
:1005400080E090E002C085E190E0DF91CF911F91C3
:100550000F91FF90EF90DF90CF90BF90AF909F9062
:100560008F90089547E050E080E0FB012191BF01AA
:10057000042E01C0220F0A94EAF7820F415051095C
:10058000A0F70895CF92DF92EF92FF920F931F93FF
:10059000CF93DF93CDB7DEB728970FB6F894DEBFC1
:1005A0000FBECDBFDC011696ED91FC9117973196E9
:1005B00091F18A017B011D821E821F821886198299
:1005C0001A821B821C82DC01ED91FC910480F58172
:1005D000E02DAE014F5F5F4FBE016B5F7F4F09950E
:1005E0006C01892BB1F4E114F10441F06D817E813D
:1005F0008F8198850E94250DF701608301151105F3
:1006000041F069817A818B819C810E94250DD801FE
:100610006C93C60102C087E190E028960FB6F8946B
:10062000DEBF0FBECDBFDF91CF911F910F91FF9025
:10063000EF90DF90CF900895089580E090E00895C6
:100640000E94920F0F931F93CF93DF93EC01888149
:100650009981009729F02A813B812617370788F472
:100660008B016F5F7F4F0E94CC0E009761F09983E2
:1006700088831B830A832C813D81232B11F4FC0189
:10068000108281E001C080E0DF91CF911F910F9136
:100690000895EF92FF920F931F93CF93DF9361150D
:1006A000710511F480E01CC041155105C1F07B01BA
:1006B000EC018C819D818A01080F191FB801CE01C0
:1006C0000E942203882371F3288139818C819D81C6
:1006D000B701820F931F0E94A00F1D830C8381E03E
:1006E000DF91CF911F910F91FF90EF9008959C01A2
:1006F0008091CE0190E04091CF01841B9109805CF4
:100700009F4F60E470E00E945B0D811105C0C9013C
:10071000F8940E94C607789490E00895EF92FF92B3
:100720000F931F93CF93DF93EC018B0188E2FB01C2
:1007300011928A95E9F761E08E810E94530860E08A
:100740008E810E94060864E170E080E090E00E94E3
:10075000E80961E08E810E94060860E08E810E94B7
:1007600053088FE590E00197F1F7E881F981008463
:10077000F185E02D26E030E04AE050E060E0CE0177
:1007800009956E3171058105910534F4B82FA72FB5
:10079000962F882780616FC0E881F9810084F185F8
:1007A000E02D26E030E04AE050E061E0CE0109951E
:1007B000623371058105910534F4B82FA72F962F68
:1007C0008827816158C07801F8E2EF0EF11CE881BA
:1007D000F9810084F185E02D26E030E04AE050E028
:1007E00060E0CE010995683171058105910534F409
:1007F000B82FA72F962F882782613DC0E881F98105
:100800000084F185E02D26E030E04AE050E061E030
:10081000CE0109956B3071058105910534F4B82F2F
:10082000A72F962F8827836126C021E069327105A2
:10083000810591050CF420E0F80121938F01EE155C
:10084000FF0529F6E881F9810084F185E02D26E095
:1008500030E04AE050E060E0CE0109956831710572
:100860008105910534F4B82FA72F962F882784612E
:1008700002C080E090E0DF91CF911F910F91FF9037
:10088000EF9008953F924F925F926F927F928F9276
:100890009F92AF92BF92CF92DF92EF92FF920F930F
:1008A0001F93CF93DF93EC01162F7A0169010E9409
:1008B000C3094B015C01112311F0388401C0312CB4
:1008C0002701440C551C440C551C85E0481A51085E
:1008D0003601660C771C660C771C85E0681A710877
:1008E00000E010E060E070E0CB012A813B814C81A8
:1008F0005D8126173707480759072CF44FEF3FEF64
:100900002FEF9FEF2BC00115110531F482E0E8169F
:10091000F1044CF0C20105C082E0C816D1041CF0FD
:10092000C3010197F1F70E94C309681979098A097F
:100930009B09E985F0E0EE0FFF1FE057FF4FA591FF
:10094000B4913C910F5F1F4F28852323321203C0BF
:1009500097FFCBCFD3CF462F372F282F642F732F5E
:10096000822FDF91CF911F910F91FF90EF90DF9039
:10097000CF90BF90AF909F908F907F906F905F903F
:100980004F903F900895CF93DF93EC018881998138
:10099000009711F00E94430E198218821D821C825A
:1009A0001B821A82DF91CF910895EF92FF920F93ED
:1009B0001F93CF93DF93EC017B018A01BA010E9460
:1009C0002203811104C0CE010E94C30407C01D830D
:1009D0000C83B701888199810E94A00FCE01DF911D
:1009E000CF911F910F91FF90EF9008951F920F925A
:1009F0000FB60F9211242F933F934F935F936F93F2
:100A00007F938F939F93AF93BF93EF93FF9387ED64
:100A100091E00E94FD00FF91EF91BF91AF919F91F6
:100A20008F917F916F915F914F913F912F910F9097
:100A30000FBE0F901F9018951F920F920FB60F9236
:100A400011242F938F939F93EF93FF93E091E701EE
:100A5000F091E8018081E091ED01F091EE0182FDDD
:100A600012C090818091F0018F5F8F732091F1010E
:100A7000821751F0E091F001F0E0E952FE4F958FBE
:100A80008093F00101C08081FF91EF919F918F9140
:100A90002F910F900FBE0F901F901895E091D501E8
:100AA000F091D6013097C1F00288F389E02D30979C
:100AB00009F009942091CE0130E0A9014F5F5F4F0A
:100AC0004F7355279091CF01941731F0F901EC57EE
:100AD000FE4F80834093CE010895EF92FF920F93D3
:100AE0001F93CF93DF93F6B4E090D401E8225091A6
:100AF000D0015F3F51F4E11056C01092D00181E067
:100B00008093C8011092C90148C08091CC01C09166
:100B1000CB01CF0D9091CA01C91BC89FE0011124E0
:100B2000CD2FDD27C695C69549E0451B042F10E063
:100B30000C171D0708F04C2F540F5093D0018091D3
:100B4000C9019091C801292FE1100FC04150922F87
:100B5000990F4F3F19F0822B292FF8CF8093C901AD
:100B60009093C8015830C8F01BC0415001C0220FFB
:100B70004A95EAF72093C801822B8093C901583027
:100B800060F00E944E0581E0E81621F00C171D0769
:100B900008F4B3CF8FEF8093D001F092CA0103C065
:100BA0000E944E05F3CFDF91CF911F910F91FF90DF
:100BB000EF900895CF92DF92EF92FF920F931F93E1
:100BC000CF93DF938C01D62E8091D1019091D201E9
:100BD000892B09F456C0D8011C969C91983050F08E
:100BE00081E09E3008F480E0D1E001C0DD0F8A95FD
:100BF000EAF701C0D4E0CFB6F894F6B490E0E12C67
:100C0000E394E091D101F091D2018091D301BAE057
:100C1000EB1659F1992319F09081892B03C090812B
:100C2000809589238083C091CD01C63011F4E0FC0A
:100C3000C7E086B58F198C1798F48BB38D2361F0BC
:100C40008BB38D2B8BBBD8011E96ED91FC911F971A
:100C500080810E946D05EDCFC8010E94C607E9CFD3
:100C6000FC0E9D2D9170D694CBCF9081892B8083E3
:100C7000CFBE86B58F198C1738F4C8010E94C607FD
:100C8000F8CF80E090E002C081E090E0DF91CF916A
:100C90001F910F91FF90EF90DF90CF9008951F92DA
:100CA0000F920FB60F9211242F933F934F935F93A0
:100CB0006F937F938F939F93AF93BF93EF93FF9324
:100CC00089B10E946D05FF91EF91BF91AF919F9106
:100CD0008F917F916F915F914F913F912F910F90E5
:100CE0000FBE0F901F9018951F920F920FB60F9284
:100CF00011242F933F934F935F936F937F938F9321
:100D00009F93AF93BF93EF93FF9386B10E946D05BE
:100D1000FF91EF91BF91AF919F918F917F916F91D3
:100D20005F914F913F912F910F900FBE0F901F90A9
:100D300018951F920F920FB60F9211242F933F9385
:100D40004F935F936F937F938F939F93AF93BF93D3
:100D5000EF93FF9383B10E946D05FF91EF91BF91D7
:100D6000AF919F918F917F916F915F914F913F9143
:100D70002F910F900FBE0F901F901895DC011796C2
:100D80007C936E931697FB01E255FF4FE491189602
:100D9000EC931897FB01E656FF4F649119966C93FC
:100DA0000895CF92DF92EF92FF920F931F93CF930C
:100DB000DF93EC017A0169010E94BE06E881F981A6
:100DC0000480F581E02D9801A601B701CE01DF91E5
:100DD000CF911F910F91FF90EF90DF90CF900994EA
:100DE000CF92DF92EF92FF920F931F93CF93DF93F7
:100DF000EC017A0169010E94BE06E881F981019047
:100E0000F081E02D9801A601B701CE01DF91CF91CD
:100E10001F910F91FF90EF90DF90CF900994EF9288
:100E2000FF920F931F93CF93DF93CDB7DEB7299730
:100E30000FB6F894DEBF0FBECDBF8C01862FF80130
:100E40001182108213821282158214824AE09E015E
:100E50002F5F3F4F7901B90190E00E945E0CF701CE
:100E600001900020E9F73197AF014E195F09B701F2
:100E7000C8010E94D50429960FB6F894DEBF0FBEB4
:100E8000CDBFDF91CF911F910F91FF90EF9008950B
:100E9000009769F0FC0101900020E9F73197AF015C
:100EA000481B590BBC0187ED91E00C948C0080E04D
:100EB00090E008958F929F92AF92BF920F931F93ED
:100EC000CF93DF93CDB7DEB7A1970FB6F894DEBF0F
:100ED0000FBECDBF19A2423008F44AE08E010F5D6B
:100EE0001F4F842E912CA12CB12CA50194010E949E
:100EF0006F0DE62FB901CA0101501109EA3014F44F
:100F0000E05D01C0E95CD801EC93232B242B252B59
:100F100061F7C8010E944807A1960FB6F894DEBF9A
:100F20000FBECDBFDF91CF911F910F91BF90AF90BA
:100F30009F908F900895CF92DF92EF92FF92CF9380
:100F4000DF936B017C016DE287ED91E00E941F0150
:100F5000EC0166277727CB016C197D098E099F0963
:100F60004AE00E945A078C0F9D1FDF91CF91FF909E
:100F7000EF90DF90CF900895BC01990F880B990BEB
:100F800097FD0C949B074AE00C945A07CF93DF938C
:100F9000FC013091D0013F3FA9F1A685B7859C9116
:100FA0008091D401892371F126B58091CC01909173
:100FB000CB01290F9091CA01291B99E0931B492F5E
:100FC00050E0289F90011124232F33272695269542
:100FD00042175307B8F48091C9012091C80191507C
:100FE00018F0822B220FFBCFEF018093C9012093D1
:100FF000C8019093D0010E944E0581E02A893B8967
:10100000232B09F080E0DF91CF91089590E0FC015F
:10101000EE58FF4F2491FC01E255FF4F3491FC0143
:10102000E656FF4FE491EE2309F43CC0222339F148
:10103000233091F038F42130A9F0223001F584B545
:101040008F7D12C0273091F02830A1F02430B9F400
:10105000809180008F7D03C0809180008F77809386
:1010600080000DC084B58F7784BD09C08091B00029
:101070008F7703C08091B0008F7D8093B000F0E047
:10108000EE0FFF1FEA57FF4FA591B4919FB7F89459
:10109000611104C08C913095382302C0EC913E2B35
:1010A0003C939FBF0895CF93DF9390E0FC01E255FE
:1010B000FF4F2491FC01E656FF4F8491882361F194
:1010C00090E0880F991FFC01E859FF4FC591D4911A
:1010D000FC01EA57FF4FA591B491611109C09FB778
:1010E000F8948881209582238883EC912E230BC06D
:1010F000623061F49FB7F8948881322F3095832352
:101100008883EC912E2B2C939FBF06C08FB7F89449
:10111000E8812E2B28838FBFDF91CF910895CF9345
:10112000DF93A091D501B091D601109709F457C073
:101130001C968C911C97883038F08E3040F08631A8
:1011400048F0E0E0F0E008C0EDE6F0E005C0EBE6D6
:10115000F0E002C0ECE6F0E05FB7F8941092D60140
:101160001092D5013097D1F11C969C911C97963125
:1011700018F0C0E0D0E002C0C8E6D0E03881983076
:1011800060F021E09E3008F420E081E090E001C0B2
:10119000880F2A95EAF7809501C08BEF8323888317
:1011A00060811C964C91483038F481E090E001C099
:1011B000880F4A95EAF70FC0242F30E04E3018F41C
:1011C0002850310902C02E50310981E090E001C061
:1011D000880F2A95EAF78095862380835FBF60E0B9
:1011E000809180020E9453088091800290E0FC016F
:1011F000E255FF4FE491E093D401FC01E656FF4F26
:10120000E491F0E0EE0FFF1FE057FF4F85919491BE
:1012100090938302809382028091810290E0FC018E
:10122000E255FF4F24912093D301FC01E656FF4F76
:10123000E491F0E0EE0FFF1FEA57FF4FA591B49144
:10124000B093D201A093D101109719F0EC91E22B49
:10125000EC9361E0809181020E94530880918002AA
:10126000883040F08E3048F0863108F089C0ECE6D6
:10127000F0E005C0EDE6F0E002C0EBE6F0E08FEF55
:101280008093D0011092CF011092CE018091840200
:101290009091850281152BE4920709F049C08DE0F9
:1012A0008093CD018EE48093CC0186E08093CB01C6
:1012B0005FB7F894608140918002483030F491E04B
:1012C00001C0990F4A95EAF70EC0242F30E04E3046
:1012D00018F42850310902C02E50310991E001C0A4
:1012E000990F2A95EAF7892F862B808390918002A7
:1012F000963118F0E0E0F0E002C0E8E6F0E030817E
:10130000983058F021E09E3008F420E091E0892FD9
:1013100001C0880F2A95EAF701C084E0832B8083FF
:1013200084E792E09093D6018093D5015FBF28C0F7
:1013300081302BE4920760F48038954209F0B8CFF1
:101340008AE18093CD0187E28093CC018AE0AECF21
:1013500082312AE7920741F488E08093CD0180E84A
:101360008093CC0185E0A2CF8115964909F0A0CFEA
:1013700086E08093CD018DE98093CC0184E096CF07
:10138000DF91CF9108953FB7F894809197029091A3
:101390009802A0919902B0919A0226B5A89B05C027
:1013A0002F3F19F00196A11DB11D3FBFBA2FA92FE4
:1013B000982F8827820F911DA11DB11DBC01CD0161
:1013C00042E0660F771F881F991F4A95D1F708954D
:1013D0008F929F92AF92BF92CF92DF92EF92FF9245
:1013E0006B017C010E94C3094B015C01C114D10453
:1013F000E104F104F1F00E94C309DC01CB0188197A
:101400009909AA09BB09883E9340A105B10570F36B
:1014100021E0C21AD108E108F10888EE880E83E0C5
:10142000981EA11CB11CC114D104E104F10419F7E8
:10143000DDCFFF90EF90DF90CF90BF90AF909F9067
:101440008F9008951F920F920FB60F9211242F9331
:101450003F938F939F93AF93BF938091930290910B
:101460009402A0919502B09196023091920223E0ED
:10147000230F2D3720F40196A11DB11D05C026E8CC
:10148000230F0296A11DB11D209392028093930217
:1014900090939402A0939502B09396028091970244
:1014A00090919802A0919902B0919A020196A11D83
:1014B000B11D8093970290939802A0939902B093E4
:1014C0009A02BF91AF919F918F913F912F910F9071
:1014D0000FBE0F901F901895CF93DF93CDB7DEB757
:1014E000AA970FB6F894DEBF0FBECDBF789484B52F
:1014F000826084BD84B5816084BD85B5826085BD10
:1015000085B5816085BD80916E00816080936E009D
:10151000109281008091810082608093810080918F
:101520008100816080938100809180008160809340
:1015300080008091B10084608093B1008091B00000
:1015400081608093B00080917A00846080937A00FB
:1015500080917A00826080937A0080917A00816025
:1015600080937A0080917A00806880937A0010924C
:10157000C100E091E701F091E80182E08083E09111
:10158000E301F091E4011082E091E501F091E601C0
:101590008FEC80831092EF01E091EB01F091EC0170
:1015A00086E08083E091E901F091EA018081806129
:1015B0008083E091E901F091EA0180818860808375
:1015C000E091E901F091EA01808180688083E091F7
:1015D000E901F091EA0180818F7D8083809184020E
:1015E000909185028038954279F080E895E2909359
:1015F0008502809384028091D5019091D601845711
:10160000924011F40E948F080E948F0881E4F82E06
:101610008E010F5F1F4F20E030E046EC51E067EC99
:1016200071E088E892E00E94C202F0927C00809112
:101630007A00806480937A0080917A0086FDFCCFE6
:10164000809178002091790090E0922B9093C501D1
:101650008093C40182E591E00E9448078091C70110
:1016600090E00E94BC0781E691E00E94480787E66F
:1016700091E00E9448078AE691E00E944807809125
:10168000C60190E00E94BC0786E791E00E944807EF
:101690008AE791E00E9448076091C4017091C501FA
:1016A000072E000C880B990B97FF03C00E949B0725
:1016B00003C04AE00E945A0781E891E00E9448076F
:1016C0008091C4019091C5011C8A1B8A1E8A1D8AC3
:1016D000188E1F8A4AE0B8010E94530CF80101904D
:1016E0000020E9F73197AF01401B510BB801CE0143
:1016F00043960E94D5046091C601C8010E940F075D
:101700006091C701CE014F960E940F071A8E198E65
:101710001C8E1B8E1E8E1D8E6F8D78A1611571051E
:1017200031F04BA15CA1CE0149960E94D5044D81B8
:101730005E8169817A81CE0149960E9449038111B7
:1017400004C0CE0149960E94C3044F89588D6B890D
:101750007C89CE0149960E944903811104C0CE01C3
:1017600049960E94C3041EA21DA218A61FA21AA673
:1017700019A6698D7A8D6115710531F04D8D5E8DDB
:10178000CE0185960E94D504898D9A8D0E94430EC4
:101790008F8D98A10E94430E89819A810E94430EE9
:1017A0008B899C890E94430E49A55AA56DA17EA1F3
:1017B00084E792E00E948C0068EE73E080E090E0A5
:1017C0000E94E8098DA19EA10E94430E0E948E01F5
:1017D00022CFCF92DF92EF92FF92CF93DF93E7ED8C
:1017E000F1E01382128288EEC82E83E0D82EE12C1D
:1017F000F12CC482D582E682F7828AE091E091835F
:10180000808385EC90E09587848784EC90E09787CF
:10181000868780EC90E0918B808B81EC90E0938BBD
:10182000828B82EC90E0958B848B86EC90E0978B9A
:10183000868B118E128E138E148EC8E8D2E08CE146
:1018400091E09983888380E49BE4ACE4B0E08A83F0
:101850009B83AC83BD838FEF9FEF9F838E838887AD
:1018600089876EE070E0CE010E94BE0680E391E0C1
:1018700099838883E4E7F2E013821282C482D582DE
:10188000E682F78284E491E09183808382E084871A
:1018900083E08587138A128ADF91CF91FF90EF90C2
:1018A000DF90CF900895BB274A3031F4992322F47A
:1018B000BDE2909581959F4F0C945F0CBB27FB0177
:1018C0005527AA27880F991FAA1FA41710F0A41B39
:1018D00083955051B9F7A05DAA3308F0A95DA19393
:1018E000009779F7B111B1931192CB010C94780C58
:1018F000DC01FC01672F71917723E1F7329704C077
:101900007C916D9370836291AE17BF07C8F3089501
:10191000E89409C097FB3EF4909580957095619589
:101920007F4F8F4F9F4F9923A9F0F92F96E9BB273F
:101930009395F695879577956795B795F111F8CFBB
:10194000FAF4BB0F11F460FF1BC06F5F7F4F8F4F26
:101950009F4F16C0882311F096E911C0772321F01C
:101960009EE8872F762F05C0662371F096E8862FB4
:1019700070E060E02AF09A95660F771F881FDAF70B
:10198000880F9695879597F9089557FD9058440FBD
:10199000551F59F05F3F71F04795880F97FB991FCE
:1019A00061F09F3F79F0879508951216130614068B
:1019B000551FF2CF4695F1DF08C016161706180618
:1019C000991FF1CF86957105610508940895E894F3
:1019D000BB2766277727CB0197F908952F923F926F
:1019E0004F925F926F927F928F929F92AF92BF922F
:1019F000CF92DF92EF92FF920F931F93CF93DF93DB
:101A0000CDB7DEB7CA1BDB0B0FB6F894DEBF0FBE37
:101A1000CDBF09942A88398848885F846E847D8484
:101A20008C849B84AA84B984C884DF80EE80FD8086
:101A30000C811B81AA81B981CE0FD11D0FB6F894FC
:101A4000DEBF0FBECDBFED0108950E942C0D68943E
:101A5000B1110C94E80C08950E94CD0C88F09F57AA
:101A600098F0B92F9927B751B0F0E1F0660F771FC2
:101A7000881F991F1AF0BA95C9F714C0B13091F0B8
:101A80000E94E70CB1E008950C94E70C672F782FC3
:101A90008827B85F39F0B93FCCF38695779567957D
:101AA000B395D9F73EF490958095709561957F4FE9
:101AB0008F4F9F4F089597FB072E16F4009407D081
:101AC00077FD09D00E94910D07FC05D03EF490955A
:101AD00081959F4F0895709561957F4F0895A1E27C
:101AE0001A2EAA1BBB1BFD010DC0AA1FBB1FEE1F98
:101AF000FF1FA217B307E407F50720F0A21BB30BE3
:101B0000E40BF50B661F771F881F991F1A9469F75E
:101B100060957095809590959B01AC01BD01CF01BA
:101B20000895AA1BBB1B51E107C0AA1FBB1FA61724
:101B3000B70710F0A61BB70B881F991F5A95A9F776
:101B400080959095BC01CD010895EE0FFF1F059083
:101B5000F491E02D09940F931F93CF93DF9382307C
:101B6000910510F482E090E0E0919D02F0919E02D8
:101B700020E030E0A0E0B0E0309719F140815181E1
:101B80000281138148175907C8F08417950769F433
:101B9000109731F012960C93129713961C9327C04E
:101BA00000939D0210939E0222C02115310519F069
:101BB0004217530718F49A01BD01EF01DF01F80144
:101BC000DBCF21153105F9F0281B390B2430310505
:101BD00080F48A819B816115710521F0FB0193835B
:101BE000828304C090939E0280939D02FE013296F0
:101BF00044C0FE01E20FF31F8193919322503109FB
:101C0000398328833AC020919B0230919C02232B78
:101C100041F4209102013091030130939C02209302
:101C20009B0220910001309101012115310541F401
:101C30002DB73EB74091040150910501241B350B8F
:101C4000E0919B02F0919C02E217F307A0F42E1B97
:101C50003F0B2817390778F0AC014E5F5F4F241710
:101C6000350748F04E0F5F1F50939C0240939B0234
:101C70008193919302C0E0E0F0E0CF01DF91CF913A
:101C80001F910F910895CF93DF93009709F481C0BE
:101C9000FC01329713821282A0919D02B0919E02A4
:101CA000109781F420813181820F931F20919B0234
:101CB00030919C022817390751F5F0939C02E0936C
:101CC0009B0267C0ED0120E030E0CE17DF0740F453
:101CD0004A815B819E0141155105F1F0EA01F5CF82
:101CE000D383C28340815181840F951FC817D907C0
:101CF00059F488819981840F951F0296918380837E
:101D00008A819B81938382832115310529F4F09385
:101D10009E02E0939D023DC0E901FB83EA83499165
:101D20005991C40FD51FEC17FD0761F48081918193
:101D3000840F951F0296E90199838883828193819C
:101D40009B838A83E0E0F0E012968D919C9113973B
:101D5000009719F0FD01DC01F7CF8D919C9111974F
:101D60009D012E5F3F4F820F931F20919B02309168
:101D70009C022817390769F4309729F410929E02C3
:101D800010929D0202C013821282B0939C02A09313
:101D90009B02DF91CF910895A0E0B0E0E2EDFEE07C
:101DA0000C94F20CEC01009721F4CB010E94AB0DD6
:101DB000B4C0FC01E60FF71F9C0122503109E21765
:101DC000F30708F4A8C0D9010D911C9111970617CB
:101DD0001707B0F00530110508F49BC0C80104973F
:101DE0008617970708F495C002501109061B170BB8
:101DF000019311936D937C93CF010E94430E89C090
:101E00005B01A01AB10A4C01800E911EA0919D02A7
:101E1000B0919E02612C712CE12CF12C109709F4E9
:101E200046C08D919C911197A815B905B1F56C012B
:101E300042E0C40ED11CCA14DB0478F14C018A18AC
:101E40009B08640142E0C40ED11C1296BC9012970C
:101E50001396AC91B5E0CB16D10440F0B282A383C7
:101E600091828082D9016D937C9309C00E5F1F4FD0
:101E7000800F911FF90191838083EB2DFA2FE114DC
:101E8000F10431F0D7011396FC93EE93129741C001
:101E9000F0939E02E0939D023CC06816790608F418
:101EA0003C017D0112960D90BC91A02DB7CF809181
:101EB0009B0290919C0288169906E1F466167706BB
:101EC000C8F48091000190910101009741F48DB711
:101ED0009EB74091040150910501841B950BE817B2
:101EE000F907C8F4F0939C02E0939B02F901718317
:101EF00060830FC0CB010E94AB0D7C01009759F0AD
:101F0000A801BE010E94970FCE010E94430EC70197
:101F100004C0CE0102C080E090E0CDB7DEB7EEE0B5
:101F20000C940E0D81E090E0F8940C94A70FFB0147
:101F3000DC0102C001900D9241505040D8F7089545
:101F4000FB01DC0101900D920020E1F70895F89467
:021F5000FFCFC1
:101F520000009F028000000000001F018C00B600FC
:101F62006C01E700C500D90000000000C202F006C3
:101F7200200320034204B20220034C0200000000AE
:101F8200C202F006AE01D1064204B2028E034C0236
:101F920000000000DA058C001D031C037703980182
:101FA2001D0354656D7065726174757265203D2004
:101FB2000020646567430020200048756D696469EC
:101FC2007479203D200020254800476173203D2080
:041FD200000D0A00F4
:107800000C94343C0C94513C0C94513C0C94513CE1
:107810000C94513C0C94513C0C94513C0C94513CB4
:107820000C94513C0C94513C0C94513C0C94513CA4
:107830000C94513C0C94513C0C94513C0C94513C94
:107840000C94513C0C94513C0C94513C0C94513C84
:107850000C94513C0C94513C0C94513C0C94513C74
:107860000C94513C0C94513C11241FBECFEFD8E036
:10787000DEBFCDBF11E0A0E0B1E0ECE9FFE702C060
:1078800005900D92A230B107D9F712E0A2E0B1E065
:1078900001C01D92AD30B107E1F70E942D3D0C945F
:1078A000CC3F0C94003C982F959595959595959582
:1078B000905D8F708A307CF0282F295A8091C0000B
:1078C00085FFFCCF9093C6008091C00085FFFCCF60
:1078D0002093C6000895282F205DF0CF982F809127
:1078E000C00085FFFCCF9093C6000895EF92FF92F1
:1078F0000F931F93EE24FF2487018091C00087FD22
:1079000017C00894E11CF11C011D111D81E4E8164B
:1079100082E4F8068FE0080780E0180770F3E09132
:107920000401F091050109958091C00087FFE9CF1E
:107930008091C6001F910F91FF90EF9008950E94D3
:10794000763C982F8091C00085FFFCCF9093C600B5
:1079500091362CF490330CF09053892F089597555D
:10796000892F08951F930E949F3C182F0E949F3CCF
:107970001295107F810F1F9108951F93182F882350
:1079800021F00E94763C1150E1F71F9108951F935A
:10799000182F0E94763C803249F0809103018F5F5E
:1079A000809303018530C1F01F9108958091C0003C
:1079B00085FFFCCF84E18093C6008091C00085FFE5
:1079C000FCCF1093C6008091C00085FFFCCF80E102
:1079D0008093C6001F910895E0910401F091050184
:1079E00009951F9108950E94763C803241F0809164
:1079F00003018F5F80930301853081F008958091AA
:107A0000C00085FFFCCF84E18093C6008091C00058
:107A100085FFFCCF80E18093C6000895E0910401CA
:107A2000F09105010995089540E951E08823A1F0FE
:107A30002D9A28EE33E0FA013197F1F721503040CA
:107A4000D1F72D9828EE33E0FA013197F1F7215064
:107A50003040D1F7815061F708953F924F925F9285
:107A60006F927F928F929F92AF92BF92CF92DF924E
:107A7000EF92FF920F931F93CF93DF93000080E16B
:107A80008093C4001092C50088E18093C10086E015
:107A90008093C2005098589A259A81E00E94143D24
:107AA00024E1F22E9EE1E92E85E9D82E0FE0C02ECA
:107AB00010E1B12EAA24A394B1E49B2EA6E58A2E50
:107AC000F2E57F2EE0E26E2E79E4572E63E5462E36
:107AD00050E5352E0E94763C8033B1F18133B9F107
:107AE000803409F46FC0813409F476C0823409F41B
:107AF00085C0853409F488C0803531F1823521F1A3
:107B0000813511F1853509F485C0863509F48DC0BC
:107B1000843609F496C0843709F403C1853709F423
:107B200072C1863709F466C0809103018F5F80932C
:107B30000301853079F6E0910401F0910501099582
:107B40000E94763C803351F60E94F33CC3CF0E94E2
:107B5000763C803249F78091C00085FFFCCFF092DF
:107B6000C6008091C00085FFFCCF9092C600809136
:107B7000C00085FFFCCF8092C6008091C00085FFC9
:107B8000FCCF7092C6008091C00085FFFCCF609250
:107B9000C6008091C00085FFFCCF5092C600809146
:107BA000C00085FFFCCF4092C6008091C00085FFD9
:107BB000FCCF3092C6008091C00085FFFCCFB09210
:107BC000C60088CF0E94763C863808F4BDCF0E945C
:107BD000763C0E94F33C7ECF0E94763C803809F4CC
:107BE0009CC0813809F40BC1823809F43CC1883942
:107BF00009F48FC080E00E94C73C6CCF84E10E94F2
:107C0000BD3C0E94F33C66CF85E00E94BD3C0E94D3
:107C1000F33C60CF0E94763C809306010E94763C44
:107C2000809307010E94F33C55CF0E94763C80333D
:107C300009F41DC183E00E94BD3C80E00E94C73C66
:107C400049CF0E94763C809309020E94763C809343
:107C5000080280910C028E7F80930C020E94763C79
:107C6000853409F415C18091080290910902892B8D
:107C700089F000E010E00E94763CF801E85FFE4FDA
:107C800080830F5F1F4F80910802909109020817AF
:107C9000190788F30E94763C803209F045CF809125
:107CA0000C0280FF01C16091060170910701660F0F
:107CB000771F7093070160930601A0910802B091AD
:107CC00009021097C9F0E8E0F1E09B01AD014E0F09
:107CD0005F1FF999FECF32BD21BD819180BDFA9A17
:107CE000F99A2F5F3F4FE417F50799F76A0F7B1F4B
:107CF00070930701609306018091C00085FFFCCF5F
:107D0000F092C6008091C00085FFFCCFB092C60003
:107D1000E1CE83E00E94C73CDDCE82E00E94C73CFA
:107D2000D9CE0E94763C809309020E94763C8093D3
:107D300008028091060190910701880F991F909386
:107D40000701809306010E94763C853409F4A6C0A1
:107D500080910C028E7F80930C020E94763C8032D0
:107D600009F0B8CE8091C00085FFFCCFF092C6002C
:107D7000609108027091090261157105B9F140E046
:107D800050E080910C02A82FA170B82FB27011C0E2
:107D9000BB2309F45CC0E0910601F0910701319624
:107DA000F0930701E09306014F5F5F4F46175707B7
:107DB000E8F4AA2369F3F999FECF209106013091E6
:107DC000070132BD21BDF89A90B58091C00085FFB2
:107DD000FCCF9093C6002F5F3F4F30930701209355
:107DE00006014F5F5F4F4617570718F38091C00099
:107DF00085FDE5CE8091C00085FFF8CFE0CE81E023
:107E00000E94C73C67CE0E94763C803209F08CCE3F
:107E10008091C00085FFFCCFF092C6008091C00029
:107E200085FFFCCFE092C6008091C00085FFFCCFAB
:107E3000D092C6008091C00085FFFCCFC092C600E2
:107E40008091C00085FFFCCFB092C60043CEE09188
:107E50000601F091070194918091C00085FFFCCF4D
:107E60009093C6009CCF80E10E94C73C33CE0E9415
:107E7000763C0E94763C182F0E94763C112309F430
:107E800083C0113009F484C08FE00E94C73C22CE29
:107E900080910C02816080930C02E5CE80910C02EF
:107EA000816080930C0259CF809107018823880F4D
:107EB000880B8A2180930B02809106019091070123
:107EC000880F991F90930701809306018091080203
:107ED00080FF09C080910802909109020196909359
:107EE000090280930802F894F999FECF1127E091D6
:107EF0000601F0910701C8E0D1E08091080290915D
:107F00000902103091F40091570001700130D9F34B
:107F100003E000935700E89500915700017001308D
:107F2000D9F301E100935700E89509901990009169
:107F3000570001700130D9F301E000935700E89534
:107F40001395103498F011270091570001700130FB
:107F5000D9F305E000935700E895009157000170B0
:107F60000130D9F301E100935700E895329602976A
:107F700009F0C7CF103011F00296E5CF112480919F
:107F8000C00085FFB9CEBCCE8EE10E94C73CA2CD19
:0C7F900085E90E94C73C9ECDF894FFCF0D
:027F9C00800063
:040000030000780081
:00000001FF
